:020000040800F2
:1000000000C00020450800084D0B0008530B0008F5
:10001000590B00085F0B0008650B0008000000008A
:100020000000000000000000000000006B0B000852
:10003000770B000800000000830B00088F0B0008FE
:100040008D0800088D0800088D0800088D0800083C
:100050008D0800088D0800088D0800088D0800082C
:100060008D0800088D0800088D0800088D0800081C
:100070008D0800088D0800088D0800088D0800080C
:100080008D0800088D0800088D0800088D080008FC
:100090008D0800088D0800088D0800088D080008EC
:1000A0008D0800088D0800088D0800088D080008DC
:1000B0008D0800088D0800088D0800088D080008CC
:1000C0008D0800088D0800088D0800088D080008BC
:1000D0008D0800088D0800088D0800088D080008AC
:1000E0008D0800088D0800088D0800088D0800089C
:1000F0008D0800088D0800088D0800088D0800088C
:100100008D0800088D0800088D0800088D0800087B
:100110008D0800088D0800088D0800088D0800086B
:100120008D0800088D0800088D0800088D0800085B
:1001300000000000000000000000000000000000BF
:1001400000000000000000000000000000000000AF
:10015000000000000000000000000000000000009F
:10016000000000000000000000000000000000008F
:10017000000000000000000000000000000000007F
:10018000000000000000000000000000000000006F
:10019000000000000000000000000000000000005F
:1001A000000000000000000000000000000000004F
:1001B000000000000000000000000000000000003F
:1001C000000000000000000000000000000000002F
:1001D000000000000000000000000000000000001F
:0401E0005FF8E0F1F3
:1001E80010B5054C237833B9044B13B10448AFF369
:1001F80000800123237010BD0C00002000000000C7
:10020800782B000808B5034B1BB103490348AFF32B
:10021800008008BD0000000010000020782B0008B6
:1002280070B54FF0FF0C4CF4E06C1CEA11541DBF84
:100238001CEA135594EA0C0F95EA0C0F00F0DEF84F
:100248002C4481EA030621EA4C5123EA4C5350EA34
:10025800013518BF52EA033541F4801143F4801385
:1002680038D0A0FB02CE4FF00005E1FB02E506F016
:100278000042E0FB03E54FF00006E1FB03569CF06B
:10028800000F18BF4EF0010EA4F1FF04B6F5007F71
:1002980064F5407404D25FEA4E0E6D4146EB0606E3
:1002A80042EAC62141EA55514FEAC52040EA5E506C
:1002B8004FEACE2EB4F1FD0C88BFBCF5E06F1ED816
:1002C800BEF1004F08BF5FEA500E50F1000041EB4D
:1002D800045170BD06F0004646EA010140EA0200FA
:1002E80081EA0301B4EB5C04C2BFD4EB0C0541EA1C
:1002F800045170BD41F480114FF0000E013C00F331
:10030800AB8014F1360FDEBF002001F0004170BD54
:10031800C4F10004203C35DA0C341BDC04F114046D
:10032800C4F1200500FA05F320FA04F001FA05F2F9
:1003380040EA020001F0004221F0004110EBD370C6
:1003480021FA04F642EB06015EEA430E08BF20EAF2
:10035800D37070BDC4F10C04C4F1200500FA04F395
:1003680020FA05F001FA04F240EA020001F0004127
:1003780010EBD37041F100015EEA430E08BF20EA9A
:10038800D37070BDC4F1200500FA05F24EEA020EE2
:1003980020FA04F301FA05F243EA020321FA04F011
:1003A80001F0004121FA04F220EA020000EBD370C8
:1003B8005EEA430E08BF20EAD37070BD94F0000FC8
:1003C8000FD101F00046400041EB010111F4801FFC
:1003D80008BF013CF7D041EA060195F0000F18BFAD
:1003E800704703F00046520043EB030313F4801FE9
:1003F80008BF013DF7D043EA0603704794EA0C0FA3
:100408000CEA135518BF95EA0C0F0CD050EA4106B8
:1004180018BF52EA4306D1D181EA030101F0004135
:100428004FF0000070BD50EA410606BF104619465D
:1004380052EA430619D094EA0C0F02D150EA013669
:1004480013D195EA0C0F05D152EA03361CBF1046AA
:1004580019460AD181EA030101F0004141F0FE4149
:1004680041F470014FF0000070BD41F0FE4141F4CD
:10047800780170BD81F0004102E000BF83F00043C5
:1004880030B54FEA41044FEA430594EA050F08BF27
:1004980090EA020F1FBF54EA000C55EA020C7FEAEB
:1004A800645C7FEA655C00F0E2804FEA5454D4EB68
:1004B8005555B8BF6D420CDD2C4480EA020281EA32
:1004C800030382EA000083EA010180EA020281EA6A
:1004D8000303362D88BF30BD11F0004F4FEA0131BC
:1004E8004FF4801C4CEA113102D0404261EB4101CB
:1004F80013F0004F4FEA03334CEA133302D0524251
:1005080063EB430394EA050F00F0A780A4F101040C
:10051800D5F1200E0DDB02FA0EFC22FA05F2801846
:1005280041F1000103FA0EF2801843FA05F359412C
:100538000EE0A5F120050EF1200E012A03FA0EFCAB
:1005480028BF4CF0020C43FA05F3C01851EBE371D5
:1005580001F0004507D54FF0000EDCF1000C7EEBF2
:1005680000006EEB0101B1F5801F1BD3B1F5001F30
:100578000CD349085FEA30004FEA3C0C04F101044F
:100588004FEA445212F5800F80F09A80BCF1004F78
:1005980008BF5FEA500C50F1000041EB045141EAFA
:1005A800050130BD5FEA4C0C404141EB0101013CC3
:1005B80028BFB1F5801FE9D291F0000F04BF0146B2
:1005C8000020B1FA81F308BF2033A3F10B03B3F184
:1005D80020020CDA0C3208DD02F1140CC2F10C0214
:1005E80001FA0CF021FA02F10CE002F11402D8BF72
:1005F800C2F1200C01FA02F120FA0CFCDCBF41EA3E
:100608000C019040E41AA2BF01EB0451294330BD0C
:100618006FEA04041F3C1CDA0C340EDC04F11404E9
:10062800C4F1200220FA04F001FA02F340EA0300C0
:1006380021FA04F345EA030130BDC4F10C04C4F106
:10064800200220FA02F001FA04F340EA03002946E6
:1006580030BD21FA04F0294630BD94F0000F83F430
:10066800801306BF81F480110134013D4EE77FEA13
:10067800645C18BF7FEA655C29D094EA050F08BF5F
:1006880090EA020F05D054EA000C04BF1946104640
:1006980030BD91EA030F1EBF0021002030BD5FEA84
:1006A800545C05D14000494128BF41F0004130BDAC
:1006B80014F580043CBF01F5801130BD01F0004500
:1006C80045F0FE4141F470014FF0000030BD7FEA73
:1006D800645C1ABF194610467FEA655C1CBF0B466E
:1006E800024650EA013406BF52EA033591EA030F85
:1006F80041F4002130BD00BF90F0000F04BF00217D
:10070800704730B54FF4806404F132044FF00005AF
:100718004FF0000150E700BF90F0000F04BF002128
:10072800704730B54FF4806404F1320410F000458E
:1007380048BF40424FF000013EE700BF42004FEA89
:10074800E2014FEA31014FEA02701FBF12F07F4306
:1007580093F07F4F81F06051704732F07F4208BFBD
:10076800704793F07F4F04BF41F40021704730B5C4
:100778004FF4607401F0004521F000411CE700BF10
:1007880050EA010208BF704730B54FF000050AE093
:1007980050EA010208BF704730B511F0004502D594
:1007A800404261EB41014FF4806404F132045FEA96
:1007B800915C3FF4D8AE4FF003025FEADC0C18BF3F
:1007C80003325FEADC0C18BF033202EBDC02C2F131
:1007D800200300FA03FC20FA02F001FA03FE40EAC3
:1007E8000E0021FA02F11444BDE600BF4FEA4102AF
:1007F80012F5001215D211D56FF47873B3EB62526B
:1008080012D94FEAC12343F0004343EA505311F091
:10081800004F23FA02F018BF404270474FF0000023
:10082800704750EA013005D111F0004008BF6FF061
:10083800004070474FF00000704700BF0C480D495A
:100848000D4A002302E0D458C4500433C4188C4223
:10085800F9D30A4A0A4C002301E013600432A24289
:10086800FBD300F06BFA02F057F900F099F87047E3
:10087800000000200C000020B82B00080C0000200D
:1008880074000020FEE7000080B588B000AF07F1D3
:10089800100300221A605A609A60DA603C4B9B6928
:1008A8003B4A43F020039361394B9B6903F02003D3
:1008B800FB60FB68364B9B69354A43F01003936134
:1008C800334B9B6903F01003BB60BB68304B9B69DB
:1008D8002F4A43F0040393612D4B9B6903F00403F3
:1008E8007B607B682A4B9B69294A43F00803936124
:1008F800274B9B6903F008033B603B6800220821F3
:10090800244800F036FD00223021234800F031FD54
:1009180000228021214800F02CFD04233B610023A4
:100928007B610223BB6107F110031946194800F0E7
:1009380075FB08233B6101237B610023BB61032313
:10094800FB6107F110031946124800F067FB3023DA
:100958003B6101237B610023BB610323FB6107F13A
:10096800100319460C4800F059FB80233B61012312
:100978007B610023BB610323FB6107F11003194668
:10098800064800F04BFB00BF2037BD4680BD00BFC6
:10099800001002400010014000080140000C014016
:1009A80080B500AF00F0D0F900F050F8FFF76CFF09
:1009B80000F0F0F80821234801F084F90C212148BF
:1009C80001F080F9002220211F4800F0D2FC4FF4EA
:1009D800FA7000F01BFA012220211B4800F0C9FC24
:1009E8004FF4FA7000F012FA01F0F4FE4FF47A7145
:1009F800462002F06EF84FF4FA7001F0CFFF40F68F
:100A0800B831462001F0ACFF4FF4FA7001F0C6FF90
:100A18004FF47A71462001F0E3FF4FF47A714620D3
:100A280002F015F84FF47A71462002F02DF84FF4D1
:100A38007A71462001F0ECFF4FF4FA7001F0AEFF36
:100A4800C0E700BF280000200008014080B590B032
:100A580000AF07F1180328220021184602F080F899
:100A68003B1D00221A605A609A60DA601A610123FD
:100A7800BB614FF48033FB6100233B620123BB62FF
:100A880002237B634FF48033BB634FF4E013FB63B3
:100A980007F11803184600F085FC0346002B01D027
:100AA80000F019F80F237B600223BB600023FB6072
:100AB8004FF480633B6100237B613B1D0221184694
:100AC80000F0F0FE0346002B01D000F004F800BF50
:100AD8004037BD4680BD80B400AF72B600BFFEE7A8
:100AE80080B485B000AF154B9B69144A43F00103ED
:100AF8009361124B9B6903F00103BB60BB680F4B0A
:100B0800DB690E4A43F08053D3610C4BDB6903F079
:100B180080537B607B680A4B5B68FB60FB6823F053
:100B2800E063FB60FB6843F00073FB60044AFB680A
:100B3800536000BF1437BD4680BC704700100240A8
:100B48000000014080B400AFFEE780B400AFFEE7CC
:100B580080B400AFFEE780B400AFFEE780B400AF1A
:100B6800FEE780B400AF00BFBD4680BC704780B4CC
:100B780000AF00BFBD4680BC704780B400AF00BF67
:100B8800BD4680BC704780B500AF00F023F900BFB8
:100B980080BD000080B58EB000AF07F128030022A9
:100BA8001A605A609A60DA6007F1200300221A601E
:100BB8005A603B1D00221A605A609A60DA601A6116
:100BC8005A619A61324B334A1A60314B00225A609B
:100BD8002F4B00229A602E4B41F61F42DA602C4BB5
:100BE80000221A612A4B00229A61294800F0C2FFAC
:100BF8000346002B01D0FFF76EFF4FF48053BB6212
:100C080007F128031946224801F0D4F90346002BBE
:100C180001D0FFF760FF1E4800F0FBFF0346002BE2
:100C280001D0FFF758FF00233B6200237B6207F1E6
:100C380020031946164801F061FD0346002B01D038
:100C4800FFF749FF70237B600023BB600023FB6034
:100C580000237B613B1D082219460D4801F0ECF882
:100C68000346002B01D0FFF736FF3B1D0C22194627
:100C7800074801F0E1F80346002B01D0FFF72BFFEE
:100C8800034800F027F800BF3837BD4680BD00BFD5
:100C9800280000200008004080B485B000AF7860CC
:100CA8007B681B68094A93420BD1094BDB69084AE8
:100CB80043F00403D361064BDB6903F00403FB60D4
:100CC800FB6800BF1437BD4680BC70470008004071
:100CD8000010024080B588B000AF786007F11003BB
:100CE80000221A605A609A60DA607B681B68104AB2
:100CF800934218D10F4B9B690E4A43F00803936146
:100D08000C4B9B6903F00803FB60FB684FF44073CE
:100D18003B6102237B610323FB6107F11003194642
:100D2800054800F07BF900BF2037BD4680BD00BFF5
:100D38000008004000100240000C014080B400AFE1
:100D480000BFBD4680BC704780B500AF084B1B682C
:100D5800074A43F010031360032000F02BF90F201B
:100D680000F008F8FFF7BCFE0023184680BD00BF5E
:100D78000020024080B582B000AF7860124B1A683C
:100D8800124B1B7819464FF47A73B3FBF1F3B2FB9D
:100D9800F3F3184600F035F90346002B01D0012380
:100DA8000EE07B680F2B0AD8002279684FF0FF30DD
:100DB80000F00BF9064A7B681360002300E001236A
:100DC80018460837BD4680BD0000002008000020F6
:100DD8000400002080B400AF054B1B781A46054B71
:100DE8001B681344034A136000BFBD4680BC7047AC
:100DF800080000207000002080B400AF024B1B6880
:100E08001846BD4680BC70477000002080B584B08D
:100E180000AF7860FFF7F0FFB8607B68FB60FB68A5
:100E2800B3F1FF3F05D00A4B1B781A46FB68134401
:100E3800FB6000BFFFF7E0FF0246BB68D31AFA6801
:100E48009A42F7D800BF00BF1037BD4680BD00BF2B
:100E58000800002080B485B000AF78607B6803F09C
:100E68000703FB600C4BDB68BB60BA684FF6FF03F7
:100E78001340BB60FB681A02BB68134343F0BF63AF
:100E880043F40033BB60044ABB68D36000BF143727
:100E9800BD4680BC704700BF00ED00E080B400AFE5
:100EA800044BDB681B0A03F007031846BD4680BCE9
:100EB800704700BF00ED00E080B483B000AF034688
:100EC8003960FB7197F90730002B0ADB3B68DAB20F
:100ED8000C4997F907301201D2B20B4483F800236A
:100EE8000AE03B68DAB20849FB7903F00F03043BD8
:100EF8001201D2B20B441A7600BF0C37BD4680BC33
:100F0800704700BF00E100E000ED00E080B489B068
:100F180000AFF860B9607A60FB6803F00703FB6113
:100F2800FB69C3F10703042B28BF0423BB61FB69DA
:100F38000433062B02D9FB69033B00E000237B61E5
:100F48004FF0FF32BB6902FA03F3DA43BB681A4079
:100F58007B699A404FF0FF317B6901FA03F3D9436B
:100F68007B680B40134318462437BD4680BC704746
:100F780080B582B000AF78607B68013BB3F1807FB9
:100F880001D301230FE00A4A7B68013B53600F211C
:100F98004FF0FF30FFF790FF054B00229A60044B9B
:100FA80007221A60002318460837BD4680BD00BFD7
:100FB80010E000E080B582B000AF78607868FFF795
:100FC80049FF00BF0837BD4680BD80B586B000AF79
:100FD8000346B9607A60FB7300237B61FFF75EFF0D
:100FE80078617A68B9687869FFF790FF024697F9DF
:100FF8000F3011461846FFF75FFF00BF1837BD4690
:1010080080BD80B582B000AF78607868FFF7B0FF28
:10101800034618460837BD4680BD000080B48BB033
:1010280000AF7860396000237B6200233B6279E17E
:1010380001227B6A02FA03F3FB613B681B68FA69C9
:101048001340BB61BA69FB699A4240F068813B680A
:101058005B68A04A93425ED09E4A934275D89E4AE6
:10106800934258D09C4A93426FD89C4A934252D09C
:101078009A4A934269D89A4A93424CD0984A9342E2
:1010880063D8984A934246D0964A93425DD8122B29
:101098002AD8122B59D801A252F823F01F110008A0
:1010A800F91000080B1100084D1100085311000831
:1010B8005311000853110008531100085311000878
:1010C8005311000853110008531100085311000868
:1010D8005311000853110008531100085311000858
:1010E80001110008151100087F4A934213D02CE023
:1010F8003B68DB683B6229E03B68DB6804333B62A2
:1011080024E03B68DB6808333B621FE03B68DB6830
:101118000C333B621AE03B689B68002B02D1042326
:101128003B6213E03B689B68012B05D108233B62B7
:101138007B68FA691A6109E008233B627B68FA69EF
:101148005A6103E000233B6200E000BFBB69FF2B4C
:1011580001D87B6801E07B6804337B61BB69FF2BA6
:1011680002D87B6A9B0002E07B6A083B9B003B61DC
:101178007B691A680F213B6901FA03F3DB431A40C4
:10118800396A3B6901FA03F31A437B691A603B68C1
:101198005B6803F08053002B00F0C180534B9B69C0
:1011A800524A43F001039361504B9B6903F00103DA
:1011B800BB60BB684E4A7B6A9B08023352F82330F7
:1011C800FB607B6A03F003039B000F2202FA03F320
:1011D800DB43FA681340FB607B68464A93421FD0A2
:1011E8007B68454A934219D07B68444A934213D09E
:1011F8007B68434A93420DD07B68424A934207D0AA
:101208007B68414A934201D105230AE0062308E09E
:10121800042306E0032304E0022302E0012300E0A4
:1012280000237A6A02F0030292009340FA6813439B
:10123800FB602F497B6A9B080233FA6841F8232038
:101248003B685B6803F48033002B06D02F4B1A6889
:101258002E49BB6913430B6006E02C4B1A68BB6927
:10126800DB432A4913400B603B685B6803F4003397
:10127800002B06D0254B5A682449BB6913434B60A1
:1012880006E0224B5A68BB69DB43204913404B6098
:101298003B685B6803F48013002B06D01B4B9A68ED
:1012A8001A49BB6913438B6006E0184B9A68BB69FF
:1012B800DB43164913408B603B685B6803F40013FB
:1012C800002B25D0114BDA681049BB691343CB605A
:1012D80025E000BF0000321000003110000022108D
:1012E8000000211000001210000011100010024030
:1012F8000000014000080140000C014000100140BE
:101308000014014000180140001C01400004014085
:101318000B4BDA68BB69DB4309491340CB607B6A36
:1013280001337B623B681A687B6A22FA03F3002B5D
:101338007FF47EAE00BF00BF2C37BD4680BC70472F
:101348000004014080B485B000AF78600B467B8014
:101358007B689A687B881340002B02D00123FB73BB
:1013680001E00023FB73FB7B18461437BD4680BCA5
:10137800704780B483B000AF78600B467B8013461B
:101388007B707B78002B03D07A887B681A6103E036
:101398007B881A047B681A6100BF0C37BD4680BC85
:1013A8007047000080B586B000AF78607B68002B7E
:1013B80001D101236CE27B681B6803F00103002B59
:1013C80000F08780924B5B6803F00C03042B0CD071
:1013D8008F4B5B6803F00C03082B12D18C4B5B68B6
:1013E80003F48033B3F5803F0BD1894B1B6803F4BA
:1013F8000033002B6CD07B685B68002B68D101231D
:1014080046E27B685B68B3F5803F06D1804B1B687A
:101418007F4A43F4803313602EE07B685B68002BBF
:101428000CD17B4B1B687A4A23F480331360784BCA
:101438001B68774A23F4802313601DE07B685B6890
:10144800B3F5A02F0CD1724B1B68714A43F480236B
:1014580013606F4B1B686E4A43F4803313600BE0D4
:101468006B4B1B686A4A23F480331360684B1B6814
:10147800674A23F4802313607B685B68002B13D0D2
:10148800FFF7BAFC386108E0FFF7B6FC02463B6993
:10149800D31A642B01D90323FAE15D4B1B6803F4CB
:1014A8000033002BF0D014E0FFF7A6FC386108E009
:1014B800FFF7A2FC02463B69D31A642B01D9032328
:1014C800E6E1534B1B6803F40033002BF0D100E036
:1014D80000BF7B681B6803F00203002B63D04C4BF2
:1014E8005B6803F00C03002B0BD0494B5B6803F0DF
:1014F8000C03082B1CD1464B5B6803F48033002B8C
:1015080016D1434B1B6803F00203002B05D07B6800
:101518001B69012B01D00123BAE13D4B1B6823F065
:10152800F8027B685B69DB00394913430B603AE0DA
:101538007B681B69002B20D0364B01221A60FFF70D
:101548005BFC386108E0FFF757FC02463B69D31A99
:10155800022B01D903239BE12D4B1B6803F00203E7
:10156800002BF0D02A4B1B6823F0F8027B685B69DC
:10157800DB00274913430B6015E0264B00221A6055
:10158800FFF73AFC386108E0FFF736FC02463B6992
:10159800D31A022B01D903237AE11D4B1B6803F0F0
:1015A8000203002BF0D17B681B6803F00803002BB3
:1015B8003AD07B689B69002B19D0174B01221A601F
:1015C800FFF71AFC386108E0FFF716FC02463B6992
:1015D800D31A022B01D903235AE10D4B5B6A03F09E
:1015E8000203002BF0D0012000F0A6FA1CE00A4B01
:1015F80000221A60FFF700FC38610FE0FFF7FCFBE0
:1016080002463B69D31A022B08D9032340E100BFE5
:101618000010024000004242800442429E4B5B6A36
:1016280003F00203002BE9D17B681B6803F0040375
:10163800002B00F0A6800023FB75974BDB6903F0B5
:101648008053002B0DD1944BDB69934A43F08053B0
:10165800D361914BDB6903F08053BB60BB68012306
:10166800FB758E4B1B6803F48073002B18D18B4BD2
:101678001B688A4A43F480731360FFF7BDFB386127
:1016880008E0FFF7B9FB02463B69D31A642B01D97E
:101698000323FDE0814B1B6803F48073002BF0D01B
:1016A8007B68DB68012B06D17B4B1B6A7A4A43F0C7
:1016B800010313622DE07B68DB68002B0CD1764BAD
:1016C8001B6A754A23F001031362734B1B6A724A43
:1016D80023F0040313621CE07B68DB68052B0CD144
:1016E8006D4B1B6A6C4A43F0040313626A4B1B6A16
:1016F800694A43F0010313620BE0674B1B6A664AB1
:1017080023F001031362644B1B6A634A23F004034A
:1017180013627B68DB68002B15D0FFF76DFB38611F
:101728000AE0FFF769FB02463B69D31A41F28832A7
:10173800934201D90323ABE0574B1B6A03F0020322
:10174800002BEED014E0FFF757FB38610AE0FFF7F3
:1017580053FB02463B69D31A41F28832934201D9BE
:10176800032395E04C4B1B6A03F00203002BEED1D8
:10177800FB7D012B05D1484BDB69474A23F0805399
:10178800D3617B68DB69002B00F08180424B5B688A
:1017980003F00C03082B61D07B68DB69022B46D170
:1017A8003F4B00221A60FFF727FB386108E0FFF77C
:1017B80023FB02463B69D31A022B01D9032367E0B6
:1017C800354B1B6803F00073002BF0D17B681B6A54
:1017D800B3F5803F08D1304B5B6823F400327B6857
:1017E8009B682D4913434B602B4B5B6823F47412A1
:1017F8007B68196A7B685B6A0B43274913434B6014
:10180800274B01221A60FFF7F7FA386108E0FFF763
:10181800F3FA02463B69D31A022B01D9032337E0B6
:101828001D4B1B6803F00073002BF0D02FE01C4BFE
:1018380000221A60FFF7E0FA386108E0FFF7DCFAE7
:1018480002463B69D31A022B01D9032320E0124B2D
:101858001B6803F00073002BF0D118E07B68DB698C
:10186800012B01D1012313E00B4B5B68FB60FB6884
:1018780003F480327B681B6A9A4206D1FB6803F442
:1018880070127B685B6A9A4201D0012300E0002352
:1018980018461837BD4680BD001002400070004051
:1018A8006000424280B584B000AF786039607B68E0
:1018B800002B01D10123D0E06A4B1B6803F007031A
:1018C8003A689A4210D9674B1B6823F007026549AA
:1018D8003B6813430B60634B1B6803F007033A68CC
:1018E8009A4201D00123B8E07B681B6803F0020329
:1018F800002B20D07B681B6803F00403002B05D065
:10190800594B5B68584A43F4E06353607B681B6833
:1019180003F00803002B05D0534B5B68524A43F48D
:1019280060535360504B5B6823F0F0027B689B6800
:101938004D4913434B607B681B6803F00103002B80
:1019480040D07B685B68012B07D1474B1B6803F4C9
:101958000033002B15D101237FE07B685B68022BE5
:1019680007D1414B1B6803F00073002B09D10123F9
:1019780073E03D4B1B6803F00203002B01D10123E8
:101988006BE0394B5B6823F003027B685B68364980
:1019980013434B60FFF730FAF8600AE0FFF72CFAC0
:1019A8000246FB68D31A41F28832934201D90323D5
:1019B80053E02D4B5B6803F00C027B685B689B006F
:1019C8009A42EBD1274B1B6803F007033A689A4207
:1019D80010D2244B1B6823F0070222493B681343AB
:1019E8000B60204B1B6803F007033A689A4201D04A
:1019F800012332E07B681B6803F00403002B08D046
:101A0800194B5B6823F4E0627B68DB681649134373
:101A18004B607B681B6803F00803002B09D0124B4E
:101A28005B6823F460527B681B69DB000E49134333
:101A38004B6000F021F802460B4B5B681B0903F072
:101A48000F030A49CB5C22FA03F3094A1360094BD6
:101A58001B681846FFF78EF9002318461037BD4655
:101A680080BD00BF0020024000100240A02B0008EB
:101A7800000000200400002090B48AB000AF2A4B78
:101A88003C1D0FCB84E80F0040F201233B8000236C
:101A9800FB610023BB6100237B6200237B61002381
:101AA8003B62224B5B68FB61FB6903F00C03042B70
:101AB80002D0082B03D02DE01D4B3B622DE0FB69C3
:101AC8009B0C03F00F0307F12802134413F8243C7E
:101AD8007B61FB6903F48033002B13D0134B5B68E5
:101AE8005B0C03F0010307F12802134413F8283CA8
:101AF800BB617B690E4A02FB03F2BB69B2FBF3F3DD
:101B08007B6204E07B690B4A02FB03F37B627B6A1E
:101B18003B6202E0064B3B6200BF3B6A184628372F
:101B2800BD4690BC704700BF902B000800100240D3
:101B380000127A0000093D0080B485B000AF7860DB
:101B48000A4B1B680A4AA2FB03235B0A7A6802FB5A
:101B580003F3FB6000BFFB685A1EFA60002BF9D143
:101B680000BF00BF1437BD4680BC7047000000208E
:101B7800D34D621080B582B000AF78607B68002BCF
:101B880001D1012341E07B6893F83D30DBB2002BA3
:101B980006D17B68002283F83C207868FFF77CF840
:101BA8007B68022283F83D207B681A687B680433CF
:101BB8001946104600F0C2FA7B68012283F84620D5
:101BC8007B68012283F83E207B68012283F83F204E
:101BD8007B68012283F840207B68012283F841203A
:101BE8007B68012283F842207B68012283F8432026
:101BF8007B68012283F844207B68012283F8452012
:101C08007B68012283F83D20002318460837BD462B
:101C180080BD80B582B000AF78607B68002B01D1B1
:101C2800012341E07B6893F83D30DBB2002B06D1FD
:101C38007B68002283F83C20786800F039F87B68DC
:101C4800022283F83D207B681A687B6804331946B2
:101C5800104600F073FA7B68012283F846207B68FF
:101C6800012283F83E207B68012283F83F207B68AD
:101C7800012283F840207B68012283F841207B6899
:101C8800012283F842207B68012283F843207B6885
:101C9800012283F844207B68012283F845207B6871
:101CA800012283F83D20002318460837BD4680BD31
:101CB80080B483B000AF786000BF0C37BD4680BCED
:101CC8007047000080B584B000AF786039603B6829
:101CD800002B09D17B6893F83E30DBB2012B14BF8F
:101CE80001230023DBB222E03B68042B09D17B6887
:101CF80093F83F30DBB2012B14BF01230023DBB282
:101D080015E03B68082B09D17B6893F84030DBB2BB
:101D1800012B14BF01230023DBB208E07B6893F892
:101D28004130DBB2012B14BF01230023DBB2002BAF
:101D380001D0012372E03B68002B04D17B680222AA
:101D480083F83E2013E03B68042B04D17B68022211
:101D580083F83F200BE03B68082B04D17B68022204
:101D680083F8402003E07B68022283F841207B68E7
:101D78001B6801223968184600F09CFC7B681B68C8
:101D8800284A934204D07B681B68274A934201D1B2
:101D9800012300E00023002B07D07B681B685A6CE6
:101DA8007B681B6842F400425A647B681B681D4AC2
:101DB800934218D07B681B681B4A934213D07B68F8
:101DC8001B68B3F1804F0ED07B681B68174A93429B
:101DD80009D07B681B68164A934204D07B681B684D
:101DE800144A934211D17B681B689B6803F0070370
:101DF800FB60FB68062B10D07B681B681A687B6841
:101E08001B6842F001021A6007E07B681B681A68C9
:101E18007B681B6842F001021A60002318461037DD
:101E2800BD4680BD002C0140003401400004004044
:101E380000080040000C004080B584B000AFF86096
:101E4800B9607A60FB6893F83C30012B01D102231A
:101E5800ACE0FB68012283F83C207B680C2B00F285
:101E68009F8001A252F823F0A51E0008A91F0008B0
:101E7800A91F0008A91F0008E51E0008A91F0008DF
:101E8800A91F0008A91F0008271F0008A91F00088C
:101E9800A91F0008A91F0008671F0008FB681B6826
:101EA800B968184600F0C4F9FB681B689A69FB68B2
:101EB8001B6842F008029A61FB681B689A69FB6814
:101EC8001B6822F004029A61FB681B689969BB6869
:101ED8001A69FB681B680A439A6162E0FB681B6821
:101EE800B968184600F014FAFB681B689A69FB6821
:101EF8001B6842F400629A61FB681B689A69FB6878
:101F08001B6822F480629A61FB681B689969BB6848
:101F18001B691A02FB681B680A439A6141E0FB6867
:101F28001B68B968184600F067FAFB681B68DA692D
:101F3800FB681B6842F00802DA61FB681B68DA6913
:101F4800FB681B6822F00402DA61FB681B68D96928
:101F5800BB681A69FB681B680A43DA6121E0FB6801
:101F68001B68B968184600F0BBFAFB681B68DA6999
:101F7800FB681B6842F40062DA61FB681B68DA6977
:101F8800FB681B6822F48062DA61FB681B68D96908
:101F9800BB681B691A02FB681B680A43DA6100E028
:101FA80000BFFB68002283F83C2000231846103746
:101FB800BD4680BD80B584B000AF786039607B686D
:101FC80093F83C30012B01D10223B3E07B68012256
:101FD80083F83C207B68022283F83D207B681B68DD
:101FE8009B68FB60FB6823F07703FB60FB6823F4C6
:101FF8007F43FB607B681B68FA689A603B681B68D4
:10200800B3F5005F3ED0B3F5005F00F28780B3F50B
:10201800805F00F08580B3F5805F7FD8702B1AD081
:10202800702B7BD8602B50D0602B77D8502B3CD0AE
:10203800502B73D8402B58D0402B6FD8302B64D0FE
:10204800302B6BD8202B60D0202B67D8002B5CD08E
:10205800102B5AD062E07B6818683B6899683B6827
:102068005A683B68DB6800F006FB7B681B689B6866
:10207800FB60FB6843F07703FB607B681B68FA68CA
:102088009A604EE07B6818683B6899683B685A68B4
:102098003B68DB6800F0EFFA7B681B689A687B682E
:1020A8001B6842F480429A603BE07B6818683B6892
:1020B80059683B68DB681A4600F066FA7B681B685B
:1020C8005021184600F0BDFA2BE07B6818683B6881
:1020D80059683B68DB681A4600F084FA7B681B681D
:1020E8006021184600F0ADFA1BE07B6818683B6871
:1020F80059683B68DB681A4600F046FA7B681B683B
:102108004021184600F09DFA0BE07B681A683B688E
:102118001B681946104600F094FA02E000BF00E080
:1021280000BF7B68012283F83D207B68002283F88A
:102138003C20002318461037BD4680BD80B485B0CA
:1021480000AF786039607B681B68FB607B68334A46
:10215800934213D07B68324A93420FD07B68B3F125
:10216800804F0BD07B682F4A934207D07B682E4A5A
:10217800934203D07B682D4A934208D1FB6823F031
:102188007003FB603B685B68FA681343FB607B681D
:10219800224A934213D07B68214A93420FD07B682E
:1021A800B3F1804F0BD07B681E4A934207D07B68FF
:1021B8001D4A934203D07B681C4A934208D1FB68AE
:1021C80023F44073FB603B68DB68FA681343FB60E9
:1021D800FB6823F080023B685B691343FB607B6804
:1021E800FA681A603B689A687B68DA623B681A6822
:1021F8007B689A627B68094A934203D07B68084AE5
:10220800934203D13B681A697B681A637B68012291
:102218005A6100BF1437BD4680BC7047002C01408E
:10222800003401400004004000080040000C004059
:1022380080B487B000AF786039607B681B6A23F090
:1022480001027B681A627B681B6A7B617B685B683A
:102258003B617B689B69FB60FB6823F07003FB6054
:10226800FB6823F00303FB603B681B68FA681343B1
:10227800FB607B6923F002037B613B689B687A699A
:1022880013437B617B68204A934203D07B681F4AD3
:1022980093420CD17B6923F008037B613B68DB68C0
:1022A8007A6913437B617B6923F004037B617B6854
:1022B800154A934203D07B68144A934211D13B6973
:1022C80023F480733B613B6923F400733B613B68F3
:1022D8005B693A6913433B613B689B693A691343FD
:1022E8003B617B683A695A607B68FA689A613B6827
:1022F8005A687B685A637B687A691A6200BF1C3720
:10230800BD4680BC704700BF002C0140003401402E
:1023180080B487B000AF786039607B681B6A23F0AF
:1023280010027B681A627B681B6A7B617B685B684A
:102338003B617B689B69FB60FB6823F4E043FB60BF
:10234800FB6823F44073FB603B681B681B02FA6858
:102358001343FB607B6923F020037B613B689B6828
:102368001B017A6913437B617B68214A934203D03E
:102378007B68204A93420DD17B6923F080037B61FF
:102388003B68DB681B017A6913437B617B6923F037
:1023980040037B617B68164A934203D07B68154AE9
:1023A800934213D13B6923F480633B613B6923F477
:1023B80000633B613B685B699B003A6913433B617F
:1023C8003B689B699B003A6913433B617B683A69A8
:1023D8005A607B68FA689A613B685A687B689A63B6
:1023E8007B687A691A6200BF1C37BD4680BC70479B
:1023F800002C01400034014080B487B000AF786001
:1024080039607B681B6A23F480727B681A627B6878
:102418001B6A7B617B685B683B617B68DB69FB608F
:10242800FB6823F07003FB60FB6823F00303FB6089
:102438003B681B68FA681343FB607B6923F40073ED
:102448007B613B689B681B027A6913437B617B68ED
:10245800214A934203D07B68204A93420DD17B697D
:1024680023F400637B613B68DB681B027A691343D2
:102478007B617B6923F480637B617B68164A9342A6
:1024880003D07B68154A934213D13B6923F48053E8
:102498003B613B6923F400533B613B685B691B016B
:1024A8003A6913433B613B689B691B013A691343D3
:1024B8003B617B683A695A607B68FA68DA613B6815
:1024C8005A687B68DA637B687A691A6200BF1C37CE
:1024D800BD4680BC704700BF002C0140003401405D
:1024E80080B487B000AF786039607B681B6A23F4DA
:1024F80080527B681A627B681B6A3B617B685B68F9
:102508007B617B68DB69FB60FB6823F4E043FB606D
:10251800FB6823F44073FB603B681B681B02FA6886
:102528001343FB603B6923F400533B613B689B68A2
:102538001B033A6913433B617B68114A934203D0FA
:102548007B68104A934209D17B6923F480437B61FD
:102558003B685B699B017A6913437B617B687A6995
:102568005A607B68FA68DA613B685A687B681A6463
:102578007B683A691A6200BF1C37BD4680BC704749
:10258800002C01400034014080B487B000AFF860EF
:10259800B9607A60FB681B6A7B61FB681B6A23F081
:1025A8000102FB681A62FB689B693B613B6923F087
:1025B800F0033B617B681B013A6913433B617B690C
:1025C80023F00A037B617A69BB6813437B61FB686C
:1025D8003A699A61FB687A691A6200BF1C37BD467E
:1025E80080BC704780B487B000AFF860B9607A608B
:1025F800FB681B6A23F01002FB681A62FB689B6980
:102608007B61FB681B6A3B617B6923F470437B61D8
:102618007B681B037A6913437B613B6923F0A00342
:102628003B61BB681B013A6913433B61FB687A69EC
:102638009A61FB683A691A6200BF1C37BD4680BCC4
:10264800704780B485B000AF786039607B689B685C
:10265800FB60FB6823F07003FB603A68FB68134378
:1026680043F00703FB607B68FA689A6000BF143781
:10267800BD4680BC704780B487B000AFF860B960D1
:102688007A603B60FB689B687B617B6923F47F43CE
:102698007B613B681A027B681A43BB6813437A69FB
:1026A80013437B61FB687A699A6000BF1C37BD469B
:1026B80080BC704780B487B000AFF860B9607A60BA
:1026C800BB6803F01F03012202FA03F37B61FB6876
:1026D8001A6A7B69DB431A40FB681A62FB681A6A4C
:1026E800BB6803F01F03796801FA03F31A43FB6818
:1026F8001A6200BF1C37BD4680BC704780B485B0E5
:1027080000AF786039607B6893F83C30012B01D1C9
:10271800022350E07B68012283F83C207B68022278
:1027280083F83D207B681B685B68FB607B681B68DF
:102738009B68BB60FB6823F07003FB603B681B6809
:10274800FA681343FB607B681B68FA685A607B6809
:102758001B681B4A934218D07B681B68194A93422E
:1027680013D07B681B68B3F1804F0ED07B681B6861
:10277800154A934209D07B681B68144A934204D0D7
:102788007B681B68124A93420CD1BB6823F0800314
:10279800BB603B685B68BA681343BB607B681B68B7
:1027A800BA689A607B68012283F83D207B68002222
:1027B80083F83C20002318461437BD4680BC704778
:1027C800002C014000340140000400400008004093
:1027D800000C004080B582B000AF04211E48FEF70F
:1027E800B1FD03467B6005E004211B48FEF7AAFD06
:1027F80003467B6004211848FEF7A4FD0346002B1E
:10280800F2D01CE00A20FEF701FB04211248FEF773
:1028180099FD03467B6001237B60012208210E4855
:10282800FEF7A7FD04E0002208210B48FEF7A1FDF2
:1028380004210948FEF786FD0346002BF3D0042146
:102848000548FEF77FFD0346002BDBD100BF00BF24
:102858000837BD4680BD00BF0010014000000000E1
:10286800B0B584B000AF03460A46FB711346BB718E
:1028780097F90630632B01DD6423BB7197F90630A5
:1028880013F1630F01DA9C23BB7197F906301846E0
:10289800FDF742FF02460B46144623F000454FF071
:1028A80000022B4B20462946FDF7BAFC02460B4690
:1028B80025A1D1E90001FDF7E1FD02460B461046CE
:1028C8001946FDF793FF0346FB81FB79002B02D0E5
:1028D800012B19D034E01F4B1B68B7F90E20DA63BF
:1028E80097F90630002B05DD002210211A48FEF763
:1028F80040FD22E097F90630002B1EDA0122102154
:102908001548FEF736FD18E0124B1B68B7F90E2084
:102918001A6497F90630002B05DD012280210F4843
:10292800FEF727FD0BE097F90630002B07DA0022A7
:1029380080210A48FEF71DFD01E000BF00E000BF4E
:1029480000BF1037BD46B0BD000000000021BC40EC
:10295800000052402800002000080140000C0140FF
:1029680080B584B000AF03463960FB71FB795B42E8
:10297800DBB2FB7397F90F3019460120FFF770FFA0
:1029880097F9073019460020FFF76AFF3B68184699
:10299800FEF73CFA00BF1037BD4680BD80B582B057
:1029A80000AF786000210120FFF75AFF00210020C6
:1029B800FFF756FF002210210748FEF7DAFC002235
:1029C80080210648FEF7D5FC7B681846FEF71EFAFC
:1029D80000BF0837BD4680BD00080140000C01401B
:1029E80080B582B000AF03463960FB710021012039
:1029F800FFF736FF97F9073019460020FFF730FF39
:102A08003B681846FEF702FA00BF0837BD4680BD8E
:102A180080B584B000AF03463960FB71FB79C3F120
:102A28006403DBB2FB7397F9073019460120FFF7FF
:102A380017FF97F90F3019460020FFF711FF3B6881
:102A48001846FEF7E3F900BF1037BD4680BD80B5D4
:102A580084B000AF03463960FB71FB79C3F16403AE
:102A6800DBB2FB7397F90F3019460120FFF7F8FE28
:102A780000210020FFF7F4FE3B681846FEF7C6F970
:102A880000BF1037BD4680BD80B584B000AF034697
:102A98003960FB71FB79C3F16403DBB2FB73FB792B
:102AA8005B42DBB2BB73FB7B5B42DBB25BB21946BA
:102AB8000120FFF7D5FE97F90E3019460020FFF7E1
:102AC800CFFE3B681846FEF7A1F900BF1037BD4698
:102AD80080BD80B584B000AF03463960FB71FB79D7
:102AE800C3F16403DBB2FB73FB7B5B42DBB2BB73FA
:102AF80097F90F3019460120FFF7B2FE97F90E300B
:102B080019460020FFF7ACFE3B681846FEF77EF931
:102B180000BF1037BD4680BD70B500260C4D0D4C6A
:102B2800641BA410A64209D100F022F800260A4D21
:102B38000A4C641BA410A64205D170BD55F8043B8D
:102B480098470136EEE755F8043B98470136F2E717
:102B5800B02B0008B02B0008B02B0008B42B0008DD
:102B680003460244934200D1704703F8011BF9E77A
:102B7800F8B500BFF8BC08BC9E467047F8B500BF62
:082B8800F8BC08BC9E46704732
:102B900002030405060708090A0B0C0D0E0F10109E
:102BA00000000000000000000102030406070809FD
:042BB0000D0200080A
:042BB400E90100082B
:0C2BB8000024F4001000000001000000E8
:0400000508000845A2
:00000001FF
